:020000040000fa
:020000040040ba
:10000000f8ef4520fdfb4000131c41000b28410088
:100010008f4b41009f4f4100af5b4100000000004b
:10002000000000000000000000000000c1d04100fe
:100030001345410000000000518b410049c14100bf
:10004000e3184100e3184100e3184100e3184100c0
:10005000e3184100e3184100e3184100e3184100b0
:10006000e318410000000000e3184100e3184100dc
:10007000e3184100e31841007d144100e3184100fa
:10008000e3184100e3184100e3184100e318410080
:10009000e3184100e3184100e31841005dce410040
:1000a000e3184100e3184100e3184100e318410060
:1000b000e3184100e3184100e3184100e318410050
:1000c000e3184100e3184100e3184100e318410040
:1000d000e3184100e3184100e3184100f5e6410050
:1000e000e3184100e3184100e3184100e318410020
:1000f000e3184100e3184100e3184100e318410010
:10010000e3184100e3184100e3184100e3184100ff
:10011000e3184100000000000000000000000000a3
:10012000e3184100e3184100e3184100e3184100df
:10013000e3184100e3184100e3184100e3184100cf
:10014000e3184100e3184100e3184100e3184100bf
:10015000e3184100e3184100e3184100e3184100af
:08016000e3184100e31841001f
:020000040000fa
:020000040040ba
:10016800f8b500bff8bc08bc9e467047c9e041001e
:10017800e5824100f8b500bff8bc08bc9e46704750
:04018800c1824100ef
:020000040000fa
:020000040040ba
:08018c00d4ad000001000000e9
:020000040000fa
:020000040040ba
:040194000020704790
:020000040000fa
:020000040040ba
:100198002de9f04f2ded068bcfb00c460591934617
:1001a8000a9311901df0eafb03681793184613f0a1
:1001b800e3faa38915901d0603d52369002b01f0e6
:1001c800518100239fed7a8b9fed7b9b0f932493a6
:1001d80023931493199312931893169303935e46db
:1001e80025abdff8dca1ddf844b0229399463378db
:1001f8003446e3b1252b02d119e0252b03d014f89e
:10020800013f002bf9d1a51b8db1239b249ac9f876
:10021800006001332a44072bc9f804502492239321
:1002280000f39d8009f10809039b2b44039323786d
:10023800002b01f0ca8000234ff0ff329846079345
:100248008df86b30671c637804922b2420250137c6
:10025800a3f120025a2a00f2e483dfe812f0a50293
:10026800e203e203ae02e203e203e2035f00e20319
:10027800e203b202bf02e2037c00cd02e203e7021e
:10028800d203d203d203d203d203d203d203d203be
:10029800d203e203e203e203e203e203e203e2033e
:1002a8004a03e2037c0392034a034a034a03e20334
:1002b800e203e203e203eb02e203e203ef02e203fa
:1002c800e203e2030003e2032703e203e2039402ea
:1002d800e203e203e203e203e203e203e203e203ee
:1002e8004a03e2037c0354024a034a034a03c30253
:1002f80054025b00e203b003e203ba0323023803ab
:100308005b00e203000376003e02e203e203b3006f
:10031800e203760048f020083b7898e758461df03d
:100328002dfb43681693184613f026fa1890584682
:100338001df024fb83681293189b33b1129b23b1e1
:10034800129b1b78002b41f083803b787fe7079a4c
:100358000a935242079248f004083b7877e722aaaa
:100368000599584612f052f980b90df194095be7e6
:1003780022aa0599584612f049f9002800f082810e
:10038800099b1bb1099911980ef088fa059bb3f9de
:100398000c3013f0400f039b18bf4ff0ff3303934b
:1003a80003984fb0bdec068bbde8f08faff300802b
:1003b8000000000000000000ffffffffffffef7fcd
:1003c800bce241000d9318f0200fb44b149340f099
:1003d800e1810a9a18f0100f134640f09d8518f035
:1003e800400f41f01d8018f4007f00f0958504331c
:1003f80014780a93002518f0010f0bd054ea05036e
:1004080008d030239df834208df86d2048f002087c
:100418008df86c3028f48061022300228df86b205f
:100428000498421c00f0908154ea050221f08008eb
:1004380040f08f81002840f00984002b40f0a2840e
:1004480011f001034eae089302d0302306f8013da7
:100458000023089a0993139310930e93049b9342d5
:10046800b8bf13469df86b20029312b1029b01336b
:10047800029318f002030b9302d0029b02330293fb
:1004880018f084030c9340f0ea82079b02995c1ae7
:10049800002c40f3e482102c2499239a804d25dd0a
:1004a80048461023c146b046059e04e0103c102c77
:1004b80000f1080017dd01321031072a2491239238
:1004c80005604360f2dd22aa31465846069312f0d1
:1004d8009df800287ff454af103c102c2499239adf
:1004e800069b25a8e7dc4646c846814601326318c4
:1004f800072a24932392c9f80050c9f8044000f34e
:100508008f849df86b2009f1080972b1239a013292
:1005180001330df16b000121072a2493239289e806
:10052800030000f3a98309f108090b9a6ab1239a19
:10053800013202331ba80221072a2493239289e857
:10054800030000f3a58309f108090c9a802a00f03a
:10055800eb82049a0899541a002c36dd102c239a41
:1005680026dd49461025a146059c06e0a9f110099b
:10057800b9f1100f01f1080118dd01321033072a13
:1005880024932392c1f800a04d60efdd22aa2146f2
:10059800584612f03bf800287ff4f2aea9f1100992
:1005a800b9f1100f249b239a25a9e6dc4c4689460d
:1005b80001322344072a24932392c9f800a0c9f8da
:1005c800044000f34d8309f1080918f4807f40f0d6
:1005d8004f82239a0898c9f8006001320344072a19
:1005e8002493c9f80400239200f3248309f108092d
:1005f80018f0040f3bd0079a0299541a002c36dde4
:10060800102c239a264d1fdd1026ddf8148004e0f7
:10061800103c102c09f1080916dd01321033072aa5
:100628002493239289e86000f2dd22aa41465846c5
:1006380011f0ecff00287ff4a3ae103c102c249b93
:10064800239a0df19409e8dc01322344072a249304
:100658002392c9f80050c9f8044008dd22aa059978
:10066800584611f0d3ff00287ff48aae249b039ae2
:10067800079902988142acbf521812180392002bb6
:100688007ff476ae00232393099b1bb10999584642
:100698000ef004f90df194093e46a8e57cab410043
:1006a800ace2410018f0200f0d9340f0ce800a9a7a
:1006b80018f0100f134640f0198418f0400f40f05e
:1006c800a28618f4007f00f01184043314780a938a
:1006d800002528f4806100239fe641468e060d938d
:1006e80000f1ea800a9acd06134600f105844c060b
:1006f80000f18f86880540f1ff83147804320025c5
:1007080001230a9289e641468c060d9300f13f8148
:10071800c80600f1f8834a0600f188868b0540f187
:10072800f2830a9890f90040e517043022462b46d8
:100738000a90002a73f10003c0f239810498421c20
:100748004ff001037ff470ae54ea050200f07f8297
:100758008846012b00f01e83022b40f0a8821498d3
:100768004eae230904f00f0143ea05732a091c461b
:100778001546435c06f8013d54ea0503f1d14eab3a
:100788009b1b089364e60d9318f0200fb54b149348
:100798003ff41fae0a9d073525f0070303f1080251
:1007a8000a92d3e9004526e69df86b30002b7ff4ca
:1007b800ccad8df86b503b7849e548f001083b78a3
:1007c80045e50a990b6807931a46002a0b4603f178
:1007d8000403fff6bcad0a933b7838e58df86b400f
:1007e8003b7834e53b78682b03bf7b7848f4007886
:1007f800013748f040082ae53b782a2b07f1010128
:1008080001f01c81a3f13002092a0f4601f24a8047
:100818000023194617f8013b01eb810102eb410166
:10082800a3f13002092af5d9049111e548f08008ae
:100838003b780ce548f008083b7808e548f01008d4
:1008480018f0200f0d933ff432af0a9d073525f0bd
:10085800070303f108020a92d3e9004539e70a9a27
:100868000d93166800248df86b40151d002e00f0be
:100878003d87049a531c00f09b862146304615f0ac
:10088800a3f80990002800f08287099b04949b1b19
:100898001a4622eae27208930a95234602920993bd
:1008a800139310930e939df86b20dee548f010012a
:1008b8008e060d937ff516af0a9d073525f00703c1
:1008c80003f10802d3e900450a920123a5e50a9835
:1008d800654b046814933022782304308df86d300a
:1008e8000d9348f002010a9000258df86c20022330
:1008f80093e50a9d0d9318f0080f05f1070500f020
:10090800ed8425f0070393ed008b03f108020a92aa
:10091800b0eec87bb4ee497bf1ee10fa40f33984af
:10092800b5eec08bf1ee10fa00f1f0869df86b2061
:100938004e4e0d9c0323002118460293331f099144
:1009480028f08008472cd8bf1e46089004911391c0
:1009580010910e9189e50a980d9301688df8d410cd
:10096800002301461a468df86b30043101230293a7
:1009780009920492139210920e920a91089335ae3e
:1009880077e548f010018c060d937ff5c1ae0a9dfe
:10099800073525f00705d5e90023002a05f10800e9
:1009a8001d4673f100030a901446bff6c7ae2d2307
:1009b80064428df86b3065eb4505012330e53b78e3
:1009c8006c2b03bf7b7848f02008013748f01008eb
:1009d8003de418f0200f40f0098518f0100f35d1cc
:1009e80018f0400f40f0788618f4007f2ed00a9a4d
:1009f800136804320a929df80c201a703e46fff7dd
:100a0800f6bba3f130020023194617f8013b01ebae
:100a1800810102eb4101a3f13002092af5d90791be
:100a280016e419460d93002b00f0cf840023012013
:100a38001a4602908df8d4108df86b300993049300
:100a4800139310930e93089035ae12e50a9a136823
:100a580004320a92039a1a603e46fff7c8bb249be9
:100a680053e500bf68ab41007cab41005cab410083
:100a78000d9a652a40f39680b5ee408bf1ee10fa98
:100a880040f03981239ac249c9f800100132013374
:100a98000121072a24932392c9f8041000f34484ff
:100aa80009f108091c9b0f9a9342249b03db18f059
:100ab800010f3ff49dad239a15981799c9f80010b6
:100ac80001320344072ac9f804002493239200f34f
:100ad800b28409f108090f9a541e002c7ff788addb
:100ae800102c239a40f308831025059e05e009f190
:100af8000809103c102c40f3ff8201321033072afa
:100b080024932392c9f800a0c9f80450efdd22aa63
:100b18003146584611f07afd00287ff431ac249b09
:100b2800239a0df19409e4e7079a0299541a002cc4
:100b38007ff70fad102c239a26dd49461025a146d4
:100b4800059c06e0a9f11009b9f1100f01f108019f
:100b580018dd01321033072a24932392c1f800a02c
:100b68004d60efdd22aa2146584611f04ffd0028be
:100b78007ff406aca9f11009b9f1100f249b239a50
:100b880025a9e6dc4c46894601322344072a2493ea
:100b98002392c9f800a0c9f8044000f3e68209f1dd
:100ba8000809d6e40f9ac9f80060012a239a03f1cc
:100bb800010302f101024ff0010124932392c9f8c5
:100bc800041040f3a582072a00f3b58209f1080949
:100bd80015981799c9f8001001320344072a24937d
:100be8002392c9f8040000f3b38209f10809b5eead
:100bf800408bf1ee10fa0f9900f021810139013292
:100c080001360b44072ac9f8006023922493c9f8d7
:100c1800041000f3468109f108091998c9f804007d
:100c2800013203441ea9072a24932392c9f800100d
:100c38007ff7dcac22aa0599584611f0e7fc00289a
:100c48007ff49eab249b0df19409d1e44146012b1e
:100c580000f03581022b27d18846002400257ee547
:100c680022aa0599584611f0d1fc00287ff488abd8
:100c7800249b0df19409a8e422aa0599584611f07d
:100c8800c5fc00287ff47cab249b0df194094ce44f
:100c980022aa0599584611f0b9fc00287ff470abd8
:100ca800249b0df1940950e48846002400254ea9a0
:100cb80000e03146e20842ea4572e80804f007031a
:100cc80005461446303354ea050201f8013c01f1a7
:100cd800ff36eed118f0010f3ff451ad302b3ff441
:100ce8004ead3023023906f8013c4eab5b1a08932f
:100cf8000e46fff7adbb1c99002940f32f830e9acf
:100d08000f998a42a8bf0a46002a14460ddd239a85
:100d1800c9f8006001322344072a2493c9f8044023
:100d2800239200f3cc8409f108090e9a002ca8bf7d
:100d3800121b002a144640f30081102c239a40f31a
:100d4800d88249461025a146059c06e00831a9f13c
:100d58001009b9f1100f40f3ca8201321033072a83
:100d680024932392c1f800a04d60efdd22aa21460a
:100d7800584611f04bfc00287ff402ab249b239ac1
:100d880025a9e4e7049b08934eaefff761bb00bfbb
:100d980098ab4100002d08bf0a2cc0f08f8008f4e2
:100da800806300220297cdf81890cdf820b04eae9f
:100db800c346ddf84890174698460ae000232046c7
:100dc80029460a221bf0d4f904460d4654ea0503c5
:100dd8007ed00a220023204629461bf0c9f930326a
:100de80006f8012c0137013eb8f1000fe6d099f85a
:100df80000309f42e2d1ff2fe0d0002d08bf0a2c1f
:100e0800dcd3189b1699f61a30461a4617f0cefe10
:100e180099f80170002fd1d009f101090027cde719
:100e280022aa0599584611f0f1fb00287ff4a8aad8
:100e38009df86b20249b0df19409fff766bb4c1eaf
:100e4800002c7ff7eaae102c20dd1025059e04e06b
:100e5800103c102c09f1080918dd01321033072a5b
:100e680024932392c9f800a0c9f80450f0dd22aaff
:100e78003146584611f0cafb00287ff481aa103c7d
:100e8800102c249b239a0df19409e6dc01322344ab
:100e9800072a24932392c9f800a0c9f804407ff7d1
:100ea800baae22aa0599584611f0b0fb00287ff483
:100eb80067aa249b239a0df19409aee641464eaeeb
:100ec80030340123884606f8014d0893fff7c0ba6d
:100ed8004eab9b1bcdf84890d8460f97ddf820b055
:100ee800ddf81890029f0893fff7b2ba1c68043324
:100ef8000a930025fff7edbb04321c680a92012310
:100f08000025fff78aba0a9a146813460433e517ce
:100f18000a9322462b460ce41c6804330a930025e6
:100f2800fff769ba22aa0599584611f06ffb002805
:100f38007ff426aa249b0df194090e9a18f4806f69
:100f48003244154600f083800f9908961846109b86
:100f5800cdf82c8071180491069749461646ddf89d
:100f68006090ddf84c80059d002b5fd0b8f1000f34
:100f780000f0088108f1ff38239b169a0a600133b4
:100f88004844072b2490c1f80490239300f3c880a9
:100f98000831129a049c1378a41b9c42a8bf1c46d3
:100fa800002c0bdd239b0e6001332044072b24907b
:100fb8004c60239300f3ab8113780831002cacbf4d
:100fc8001c1b1c46002c2ddd102c239a1ddd102720
:100fd80004e0103c102c01f1080116dd013210303c
:100fe800072a24902392c1f800a04f60f1dd22aabd
:100ff8002946584611f00afb00287ff4c1a9103c85
:10100800102c2498239a25a9e8dc01322044072ac9
:1010180024902392c1f800a04c6000f39181129ba8
:101028001b7808311e44109b002b9fd1b8f1000f8c
:10103800a0d134460f9a089e069fddf82c80b2187e
:1010480094428946214628bf114603460d461c9afc
:101058000f998a4280f201822399159c1798c9f842
:1010680000000131234407292493c9f8044023913f
:1010780000f38d8209f108090f997418641b8a1a04
:101088009442a8bf1446002c0ddd2399c9f80050de
:101098000131234407292493c9f80440239100f31c
:1010a800bc8309f10809002cacbf141b1446002ca2
:1010b8007ff79eaa102c239a1edd1025059e04e0ba
:1010c80009f10809103c102c16dd01321033072aeb
:1010d80024932392c9f800a0c9f80450f0dd22aa8d
:1010e8003146584611f092fa00287ff449a9249b0a
:1010f800239a0df19409e5e701322344072a249342
:101108002392c9f800a0c9f804407ff76faa91e5b7
:1011180018f0010f7ff457ad072a7ff77cadc0e6c2
:1011280022aa2946584611f071fa00287ff428a906
:10113800249825a92de722aa0599584611f066faa0
:1011480000287ff41da9249b239a0df194093fe5fb
:1011580022aa0599584611f059fa00287ff410a9d7
:10116800249b239a0df1940941e522aa0599584632
:1011780011f04cfa00287ff403a9249b0df194097f
:10118800fff7e7b9129b013b1293109b013b1093a9
:10119800f2e6b4ee488bf1ee10fa80f1e3830d9b92
:1011a800612b00f0b882412b00f07881049b013359
:1011b8000d9b23f0200500f09d83472d04d1049b4f
:1011c800002b08bf0123049318ee903a48f480726c
:1011d800002b02924ff00003c0f2b882b0ee48ab89
:1011e800069309930d9b662b00f0ef82462b00f0c7
:1011f800d883b0ee4a0b452d0abf049b049c5c1ca7
:1012080020aa1dab0192009322461cab022158462e
:1012180004f0f6ff0d9b672b064640f0958318f007
:10122800010f40f04383209bc6469b1bddf80880d6
:101238000f93472d00f0cf810d9b462b00f0b38212
:10124800652b40f312840d9b662b00f0ac821c9b2f
:101258000e930f9b0e9a19469142134600f3608233
:101268001ef0010f00f06383159a134408931ef4cf
:10127800806f00f010830e9b002b40f30c836723d4
:101288000d9312980e9a0023139310930378ff2b53
:101298000ed09a420cdd4178d21a002900f08481e0
:1012a800109b013310930b46ff2b00f10100f0d186
:1012b8000e92109b139a089912901344189a02fbe5
:1012c8000313089323eae3730293069b002b40f071
:1012d8007b8104939df86b20fff7c7b825f00705bd
:1012e80005f1080395ed008b0a93fff711bb4c46f7
:1012f800894601322344072a24932392c9f800a07f
:10130800c9f804403ff70eae09f1080915e622aa0c
:101318002946584611f07af900287ff431a8129b23
:1013280024981b7825a949e622aa0599584611f060
:101338006df900287ff424a80df19409fff7b2bbda
:1013480022aa2946584611f061f900287ff418a806
:10135800129b24981b7825a91e4464e6239ac24848
:10136800c9f80000013201330120072a249323928f
:10137800c9f8040000f3858009f1080929b90f9a12
:101388001ab918f0010f3ff433a9239a159c17983e
:10139800c9f8000001322344072a2493c9f80440fd
:1013a800239200f36a8209f108090029c0f24482f5
:1013b8000f98c9f8006001320344072a2493239246
:1013c800c9f804007ff712a934e4249b002b3ef4eb
:1013d800ddaf059c119822aa214611f017f90028c3
:1013e8003ef4d4afb4f90c30fef7d3bf0a9a039990
:1013f8001368cd170846043229460a92c3e900014a
:101408003e46fef7f4be043314880a930025fff71e
:1014180060b914880432002501230a92fef7fdbf43
:10142800043314880a930025fef7e5bf0a98b0f93b
:101438000040fff779b922aa0599584611f0e6f855
:1014480000287ef49daf249b0df19409fff743bb60
:1014580048f480683b78fef7fabe18f0010f3ff4b5
:101468000baef9e54021119807f02af9059a1060aa
:101478001061002800f0f182059a40235361fef7bd
:10148800a0be22aa0599584611f0c0f800287ef49b
:1014980077af1c99249b0df194096fe730238df8e1
:1014a8006c3058238df86d30049b632b48f0020490
:1014b80000f340820023099335ae18ee903a002bd2
:1014c8000d9b48f481720292a04623f02005c0f2d9
:1014d8003e81b0ee48ab002306930d9b612b00f0d4
:1014e800ec81412b7ff47eaeb0ee4a0b1ca815f0c0
:1014f800d7ffb4ee007b20ee070bb5ee400bf1ee04
:1015080010fa01d101231c93584c049bb3ee005be5
:10151800013b314605e0b5ee400bf1ee10fa14d070
:10152800114620ee050bfdeec06b0a4616ee900a3a
:10153800b3f1ff3f205c02f8010bb8eee67b1846da
:1015480030ee470b03f1ff33e5d1b6ee007bb4ee86
:10155800c70bf1ee10fa00f3ff80b4ee470bf1ee83
:1015680010fa04d116ee903adb0700f1f580002856
:1015780007db1418302301f8013fa142fbd10130e9
:101588000244931bc6460f93ddf8088051e622aa51
:101598000599584611f03af800287ef4f1ae1c9ae5
:1015a800249b0df1940967e51399013113916ee6b7
:1015b8003046049412f0e0f820eae07208900a95a8
:1015c80002922346fff76bb92d2200238df86b207a
:1015d8000493fef74bbf1c9b0e93da1c03db049aa3
:1015e80093427ff736ae0d9b023b0d9323f0200507
:1015f8000e9b412d03f1ff331c9300f059819df898
:1016080034200021002bb8bf0e9b8df87820babf7c
:10161800c3f101032d222b22092b8df8792040f3e9
:101628005d810df187042046114d00e0104685fbd1
:101638000312d917c1eba20101eb8102a3eb42020d
:101648003032092900f8012c0b4600f1ff32eddc9d
:1016580030330238dbb2844202f8013c40f2fa81ae
:101668000df17a00114607e098ab410068ab4100e4
:101678006766666611f8013b00f8013b8c42f9d1b8
:101688000134a21a0df17a031a441eabd31a0f9a29
:101698001993012a1344089340f3ad81089b159ac6
:1016a800134408930023139310930e93089b2ef46e
:1016b800806e23eae3734ef48078029305e622aa4b
:1016c8000599584610f0a2ff00287ef459ae249bd5
:1016d8000df19409fff729bb0a9a136804320a929c
:1016e800bdf80c201a803e46fef781bd049b139678
:1016f800062b28bf06233246049610960e960996a6
:1017080002930a950893ae4efef7afbe2d228df8d0
:101718006b20fff70db930238df86c307823c1e6c4
:101728000f9b159a134408930e9b002b40f34e8190
:1017380067230d931ef4806f7ff4a3ad089b23ea03
:10174800e3730293002313931093bee509932d23ab
:101758000693b1ee48abc0e6209112f8010ce37b8a
:10176800834240f0508113464ff0300e03f801eced
:10177800209b591e209113f8011c8142f6d039296b
:1017880016bf0131a17ac9b203f8011cf9e6049b1e
:101798000293089304900a95139010900e909df868
:1017a8006b20fef762be1c9b0e93002b049b40f33c
:1017b8002d81002b40f0ec801ef0010f40f0e880f6
:1017c8000e9b089366230d93b4e7049cb0ee4a0b76
:1017d80020aa1dab0192009303211cab2246584658
:1017e80004f00efd064601193378302b00f0f9801d
:1017f8001c9c2144b5ee40abf1ee10fa0bd0209bb7
:1018080099427ff611ad30205a1c20921870209b07
:101818009942f9d808e50b4606e522aa05995846e3
:1018280010f0f4fe00287ef4abad1c9a0f99249baf
:101838008a1a0df1940936e44c4210315dda10250c
:1018480004e009f10809103c102c56dd0132103370
:10185800072a24932392c9f800a0c9f80450f0dda0
:1018680022aa0599584610f0d1fe00287ef488adca
:10187800249b239a0df19409e5e722aa0599584675
:1018880010f0c4fe00287ef47bad1c99249b239a9b
:101898000df1940989e5089b23eae3730293672312
:1018a8000d934fe700220492fef7d2bc3119a1e74d
:1018b8000d9a0f32d2b20121a4e6b0ee4a0b1ca851
:1018c80015f0eefdb4ee007b20ee070bb5ee400bf5
:1018d800f1ee10fa00f0af803a4c16e6002940f01d
:1018e8008f8030228df87a200df17b02303313700f
:1018f8000132cae60623049366e401322344072a28
:10190800c9f800a0c9f804402493239209f10809f2
:101918007ff74ead22aa0599584610f077fe0028a9
:101928007ef42ead249b239a0df1940940e50e9b7d
:1019380008939ce4591c584606f0c2fe0646002847
:1019480000f096800990b8e50d9b472baed118f0b2
:10195800010f3ff468ac0d9b462b06eb04013ff4e6
:1019680043af47e7184e0d9c9df86b20002319469e
:1019780003200993331f0491029028f08008472c14
:10198800d8bf1e46139110910e910890fef76dbdb9
:10199800159a0e9b1344049a1a44662308920d93d1
:1019a800c8e6049cb0ee4a0b20aa1dab0192009336
:1019b80022461cab0321584604f022fc0646cae71f
:1019c80090ab41007cab410064ab4100089ac3f185
:1019d80001031a4422eae2730293672308920d93e3
:1019e800b0e6b5ee40abf1ee10fa3ff401afc4f14a
:1019f80001041c94fde61ef0010f3ff453ae4de6c2
:101a08000df17a0272e701461346b8e613b91ef0e3
:101a1800010f0ad0159b049a01331a4422eae27393
:101a28000293662308920d938ce601230293089390
:101a380066230d9386e601231c934de70a987b786d
:101a4800026842eae2720492024604320f460a929f
:101a5800fef7fdbb0df17a0217e6119a0c2313600d
:101a68004ff0ff330393fef79bbc1c9b0e93bfe51f
:101a7800059ab2f90c3043f040039381fef789bc14
:020000040000fa
:020000040040ba
:101a880055736167653a206d6163696e666f200df5
:101a98000a00000045783a206d6163696e666f2020
:101aa8000d0a0000496e746572666163653a202507
:101ab8007320447269766572205374617469737413
:101ac8006963730d0a0000000d0a20526563656999
:101ad800766520537461746973746963730d0a00c1
:101ae80009206e52784f6b5061636b6574733a20ae
:101af80025640d0a09206e527850656e6442756639
:101b0800666572733a2025640d0a09206e5278536f
:101b180063686564427566666572733a2025640d6c
:101b28000a00000009206e52784572726f72506187
:101b3800636b6574733a2025640d0a09206e527828
:101b4800467261676d656e744572726f72733a2082
:101b580025640d0a09206e5278427566664e6f74c8
:101b6800417661696c61626c653a2025640d0a00f2
:101b78000d0a205472616e736d6974205374617418
:101b88006973746963730d0a0000000009206e54bc
:101b9800784f6b5061636b6574733a2025640d0a46
:101ba80009206e547850656e644275666665727376
:101bb8003a2025640d0a09206e54784572726f72b6
:101bc8005061636b6574733a2025640d0a09206eb1
:101bd8005478517565756546756c6c3a2025640da9
:101be8000a0d0a00096e6f7420737570706f727435
:101bf80065640d0a00000000496e746572666163d1
:101c0800653a2025732048617264776172652052b5
:101c180065676973746572205374617475730d0a0e
:101c280000000000092025733a20307825780d0a35
:101c38000000000064697361626c65640000000064
:101c480064697361626c6500656e61626c656400ed
:101c5800656e61626c65000055736167653a2025a1
:101c680073203c696e746572666163653e203c6fe3
:101c78006e2f6f66663e200d0a00000045783a20f8
:101c88002573205049433332494e54206f6e200d3e
:101c98000a000000556e6b6e6f776e20696e746572
:101ca80072666163650d0a006f6e00006f666600fc
:101cb800556e6b6e6f776e206f7074696f6e0d0a5c
:101cc8000000000025732025730d0a004661696c29
:101cd800656420746f2025732025730d0a000000a9
:101ce800556e6b6e6f776e207365727669636520cb
:101cf80025730d0a000000006e6f6e65000000007d
:101d08000c2f400001000000fc2a400002000000e7
:101d1800b01c400003000000b41c40000300000099
:101d2800102f40000400000055736167653a206475
:101d38006e7363203c64656c2f696e666f2f6f6edf
:101d48002f6f66662f6c6f6f6b75703e200d0a00e3
:101d580055736167653a202573203c6f6e2f6f6657
:101d6800663e203c696e746572666163653e203c20
:101d78007374726963742f707265663e2f3c636c6e
:101d88006561723e200d0a0045783a202573206f60
:101d98006e20657468300d0a000000007374726963
:101da800637400007072656600000000636c656112
:101db8007200000055736167653a20646e73632092
:101dc8006c6f6f6b7570203c747970653e203c6851
:101dd8006f73744e616d653e200d0a0048656c7026
:101de8003a203c686f73744e616d653e2855524cbd
:101df80029202d206c6f6f6b20757020666f722004
:101e0800686f73746e616d650d0a000048656c70cb
:101e18003a203c747970653e203a2061206f722028
:101e28004120666f7220495076342061646472657f
:101e38007373206c6f6f6b75700d0a0048656c705a
:101e48003a203c747970653e203a206161616120d6
:101e58006f72204141414120666f722049507636a9
:101e68002061646472657373206c6f6f6b75700d9d
:101e78000a00000048656c703a203c747970653e31
:101e8800203a20616e7920666f7220626f74682034
:101e98004950763420616e6420495076362061645a
:101ea8006472657373206c6f6f6b75700d0a000038
:101eb800646e7363206c6f6f6b75703a20636f6d1f
:101ec8006d616e6420696e2070726f6772657373de
:101ed8002e205265747279206c617465722e0d0a19
:101ee8000000000041000000610000004141414144
:101ef800000000006161616100000000414e59006e
:101f0800616e7900646e7363206c6f6f6b75703ae5
:101f1800205b25735d204c6f6f6b75702054797052
:101f280065206e6f7420737570706f727465642e9f
:101f38000d0a0000646e7363206c6f6f6b75703ae6
:101f480020486f7374206e616d6520746f6f206c0c
:101f58006f6e672e2052657472792e0d0a0000008c
:101f6800646e7363206c6f6f6b75703a2072657363
:101f78006f6c76696e6720686f73743a20257320da
:101f8800666f7220747970653a2573200d0a000017
:101f980055736167653a20646e73632064656c20cd
:101fa8003c686f73744e616d653e7c616c6c200d8e
:101fb8000a00000048656c703a203c686f73744ee4
:101fc800616d653e2855524c29202d2052656d6f54
:101fd80076652074686520656e747279206966205c
:101fe800657869737473200d0a00000048656c7089
:101ff8003a20616c6c202d2052656d6f76652061ea
:102008006c6c20746865207265736f6c76656420eb
:10201800656e747279200d0a00000000616c6c0016
:102028005b25735d206e6f742070617274206f661b
:102038002074686520444e532043616368652065b9
:102048006e747279200d0a00496e636f6d706c654d
:10205800746520636f6d6d616e64200d0a00000069
:1020680055736167653a20646e736320696e666fa5
:10207800200d0a0048656c703a20646973706c61c1
:10208800792074686520444e532063616368652035
:10209800656e7472792064657461696c73200d0ac9
:1020a80000000000444e5320436c69656e7420693b
:1020b8007320646f776e210d0a000000444e532090
:1020c800436c69656e74204946202d2053747269eb
:1020d80063743a2025732c205072656665727265a8
:1020e800643a2025730d0a00444e5320436c6965f9
:1020f8006e74202d2074696d653a2025642c20703b
:10210800656e64696e673a2025642c206375727267
:10211800656e743a2025642c20746f74616c3a20c3
:1021280025640d0a00000000486f73746e616d65c8
:10213800203d202573200d0a54696d656f75742044
:102148003d202564200d0a0049507634203d257332
:102158000d0a000049507636203d2025730d0a00ef
:102168002d2d2d2d2d2d2d2d2d2d2d2d2d2d2d2d97
:102178002d2d2d2d2d2d2d2d2d2d2d2d2d2d2d2d87
:102188002d2d2d2d2d2d2d2d2d2d2d2d2d2d2d2d77
:102198002d2d2d2d0d0a00004e6f20444e53204347
:1021a8006c69656e7420436163686520656e74723e
:1021b800696573200d0a0000496e76616c696420b8
:1021c800496e70757420436f6d6d616e64203a5b63
:1021d800202573205d200d0a000000006172703a0e
:1021e800206164647265737320616c7265616479df
:1021f800207175657565640d0a0000006172703a9a
:102208002061646472657373206e65776c792071e0
:1022180075657565640d0a006172703a207175659f
:1022280075652066756c6c2f6572726f720d0a0089
:1022380055736167653a20617270203c696e7465f8
:1022480072666163653e203c722f712f642f6c3e6d
:10225800203c6970416464723e200d0a0000000051
:1022680045783a20617270205049433332494e54c0
:102278002072203139322e3136382e312e31303518
:10228800200d0a006c0000006172703a202564205d
:10229800736c6f747320696e207468652063616362
:1022a80068650d0a000000006172703a2049507696
:1022b8003420616464726573733a202573000000ea
:1022c8002c204d414320416464726573733a202584
:1022d800730000002c20636f6d706c6574650d0ac7
:1022e800000000002c207065726d616e656e740dc3
:1022f8000a0000006172703a204950763420616407
:1023080064726573733a2025732c20717565756541
:10231800640d0a00496e76616c6964204950206139
:1023280064647265737320737472696e67200d0a32
:1023380000000000720000006172703a207265733c
:102348006f6c766564202d20495076342061646472
:10235800726573733a2025732c204d4143204164e4
:1023680064726573733a2025730d0a0071000000ca
:102378006172703a204950763420616464726573e2
:10238800733a2025732c204d4143204164647265c3
:1023980073733a2025730d0a000000006172703ac9
:1023a800206e6f207375636820656e7472790d0aec
:1023b80000000000640000006172703a2072656dd0
:1023c8006f7665642025730d0a0000006172703a0b
:1023d80020556e6b6e6f776e206f7074696f6e0d1f
:1023e8000a000000696e7465726e616c000000007e
:1023f800706f6f6c0000000065787465726e616cb8
:1024080000000000756e6b6e6f776e005573616724
:10241800653a2068656170696e666f20312f322fca
:1024280033200d0a0000000045783a206865617085
:10243800696e666f20310d0a000000004e6f20683b
:1024480065617020696e666f2065786973747320a2
:10245800666f7220747970653a202573210d0a0021
:102468004865617020747970653a2025732e20497b
:102478006e697469616c2063726561746564206853
:102488006561702073697a653a2025642042797401
:1024980065730d0a00000000416c6c6f6361626c2b
:1024a8006520626c6f636b20686561702073697a60
:1024b800653a2025642042797465730d0a0000008e
:1024c800416c6c20617661696c61626c652068653d
:1024d80061702073697a653a2025642042797465b1
:1024e800732c20686967682077617465726d617202
:1024f8006b3a2025640d0a004c617374206865618d
:1025080070206572726f723a20307825780d0a0053
:102518004e6f20547261636520696e666f2065781e
:10252800697374732e0d0a00537461636b207570a0
:10253800206661696c65640d0a000000537461636c
:102548006b207570207375636365656465640d0a37
:102558000000000055736167653a20737461636b0e
:10256800203c75702f646f776e3e203c70726573e7
:10257800657276653e0d0a0045783a20737461638a
:102588006b20646f776e2070726573657276650d67
:102598000a00000075700000537461636b20616c61
:1025a8007265616479207570210d0a005475726e28
:1025b80020537461636b20646f776e20616e6420b2
:1025c8007468656e207570210d0a00005265737479
:1025d800617274696e672074686520737461636bd7
:1025e800207769746820256420696e746572666155
:1025f80063652873290d0a00646f776e0000000078
:10260800537461636b20646f776e3a2063616e6efa
:102618006f7420676574206120737461636b206830
:10262800616e646c650d0a00537461636b20646f9e
:10263800776e207375636365656465640d0a0000d1
:1026480055736167653a206966203c696e746572e6
:10265800666163653e203c646f776e2f75703e201f
:102668000d0a000045783a20696620504943333204
:10267800494e5420646f776e200d0a00556e6b6ebc
:102688006f776e20696e746572666163652073701a
:1026980065636966696564200d0a0000546869739a
:1026a80020696e7465726661636520616c7265612c
:1026b80064792075700d0a005468697320696e7416
:1026c80065726661636520616c7265616479206416
:1026d8006f776e0d0a00000057726f6e6720706189
:1026e80072616d657465722073706563696669658a
:1026f80064200d0a000000004f7065726174696ff4
:102708006e207375636365737366756c210d0a00bb
:102718004f7065726174696f6e206661696c65647b
:10272800210d0a0055736167653a207365746d6100
:1027380063203c696e746572666163653e203c780f
:102748003a783a783a783a783a783e200d0a000092
:1027580045783a207365746d61632050494333327c
:10276800494e542061613a62623a63633a64643a5a
:1027780065653a6666200d0a00000000617267769a
:102788005b325d3a2025730d0a000000496e7661c0
:102798006c6964204d4143206164647265737320e1
:1027a800737472696e67200d0a0000005365742007
:1027b8004d41432061646472657373206661696c7e
:1027c80065640d0a000000005365742042494f53a8
:1027d800204e616d65204f4b0d0a00005365742033
:1027e80042494f53204e616d65206661696c65648e
:1027f8000d0a000055736167653a20736574626954
:102808006f73203c696e746572666163653e203c37
:10281800782e782e782e783e200d0a0045783a20ba
:1028280073657462696f73205049433332494e545b
:10283800204d434850424f4152445f3239200d0adf
:102848000000000053657420676174657761792022
:1028580061646472657373204f4b0d0a00000000b9
:102868005365742067617465776179206164647267
:10287800657373206661696c65640d0a0000000069
:1028880055736167653a207365746777203c696e94
:10289800746572666163653e203c697076342f36d4
:1028a80020616464726573733e203c76616c696470
:1028b80054696d653e200d0a0000000045783a20f5
:1028c8007365746777205049433332494e54203139
:1028d80039322e3136382e302e31200d0a000000c4
:1028e8005365742069702061646472657373204f46
:1028f8004b0d0a0053657420697020616464726529
:102908007373206661696c65640d0a0055736167ad
:10291800653a207365746970203c696e74657266e7
:102928006163653e203c697076342f3620616464ab
:10293800726573733e203c697076346d61736b2fda
:102948006970763620707265666978206c656e3eaf
:102958000d0a000045783a20736574697020504963
:10296800433332494e54203139322e3136382e30e5
:102978002e38203235352e3235352e3235352e303b
:10298800200d0a00416e20616464726573732073c0
:1029980065727669636520697320616c726561642c
:1029a800792072756e6e696e672e2053746f702071
:1029b800444843502c205a434c4c2c206574632eb9
:1029c8002066697273740d0a00000000496e766112
:1029d8006c6964204950206d61736b20737472694f
:1029e8006e67200d0a0000004e6f20737563682023
:1029f800696e746572666163652069732075700d10
:102a08000a00000055736167653a20736574646e47
:102a180073203c696e746572666163653e203c781c
:102a28002e782e782e783e200d0a000045783a2020
:102a3800736574646e73205049433332494e542091
:102a48003235352e3235352e3235352e30200d0ab9
:102a58000000000053657420444e53206164647282
:102a6800657373206661696c65640d0a0000000077
:102a78006e6f7420676976656e0000007375636316
:102a8800657373006661696c0000000055736167c7
:102a9800653a202573203c696e74657266616365ca
:102aa8003e203c6f6e2f6f66662f72656e65772fbe
:102ab800726571756573742f696e666f3e200d0ab5
:102ac8000000000072656e65770000007265717520
:102ad8006573740052657175657374206e656564fd
:102ae8007320616e20495020616464726573730db0
:102af8000a000000696e666f0000000044484350f9
:102b0800207374617475733a202564202820256425
:102b1800203d3d20426f756e64292c2074696d65d7
:102b28003a2025640d0a000044484350206c656132
:102b380073652073746172743a2025642c2064755f
:102b4800726174696f6e3a202564730d0a00000083
:102b5800444843502072656e65772074696d653a04
:102b68002025642c20726562696e642074696d6525
:102b78003a2025640d0a00004448435020616464eb
:102b8800726573733a2025730d0a00004448435058
:102b9800207365727665723a2025730d0a0000006d
:102ba8004448435020626f6f74206e616d653a200f
:102bb80025730d0a00000000444843503a2066611e
:102bc800696c656420746f2067657420696e666f30
:102bd8000d0a000025732025732025730d0a0000b7
:102be8007375636365737366756c00006661696c01
:102bf800656421004e6f6e65000000007365740007
:102c08006765740044656661756c7420696e7465e7
:102c18007266616365207365742025730d0a000070
:102c280044656661756c7420696e7465726661636b
:102c3800652069733a2025730d0a00005573616792
:102c4800653a206465666e6574207365742f6765e0
:102c580074203c696e746572666163653e0d0a0096
:102c680045783a206465666e6574207365742065de
:102c78007468300d0a00000055500000444f574e4c
:102c88000000000052656164790000004e6f7420f6
:102c9800526561647900000055736167653a206e7a
:102ca8006574696e666f0d0a0000000045783a2069
:102cb8006e6574696e666f0d0a0000002d2d2d2d4e
:102cc8002d2d2d2d2d2d20496e746572666163653d
:102cd800203c25732f25733e202d2d2d2d2d2d2d98
:102ce8002d2d2d200d0a0000496e746572666163f2
:102cf8006520697320646f776e0d0a00486f7374de
:102d0800204e616d653a202573202d204e424e538a
:102d18002064697361626c6564200d0a000000001c
:102d28004950763420416464726573733a20257380
:102d38000d0a00004d61736b3a2025730d0a0000df
:102d4800476174657761793a2025730d0a000000a0
:102d5800444e533a2025730d0a0000004d4143208c
:102d6800416464726573733a2025730d0a0000008c
:102d7800646863702069732025730d0a00000000e1
:102d88004c696e6b2069732025730d0a00000000e2
:102d98005374617475733a2025730d0a000000009e
:102da80064656661756c742049502061646472655d
:102db800737300002573206973204f4e0d0a0000bd
:102dc8006468637000000000444e53204c6f6f6bc2
:102dd80075703a20444e53206661696c757265209f
:102de800666f722025730d0a00000000444e5320c0
:102df8004c6f6f6b75703a207265717565737420ce
:102e080074696d656f75742e0d0a00004c6f6f6bd9
:102e1800757020416e737765723a0d0a2d2d2d2d30
:102e28002d2d2d2d2d2d2d2d2d2d2d2d2d2d2d2dca
:102e38002d2d0d0a000000004e6f204c6f6f6b7532
:102e48007020656e74727920666f72205b25735de1
:102e58000d0a00005b25735d20412049507634201f
:102e680041646472657373203a2025642e25642eac
:102e780025642e25640d0a005b25735d20414141c0
:102e88004120495076362041646472657373203a54
:102e980025730d0a000000003a20737461636b20eb
:102ea800636f6d6d616e6473000000007463706918
:102eb800700000004661696c656420746f2063725d
:102ec8006561746520544350495020436f6d6d61ae
:102ed8006e64730d0a000000544350495020636f1c
:102ee8006d6d616e6473207461736b2072656769c0
:102ef8007374726174696f6e206661696c65640dc4
:102f08000a00000064656c006c6f6f6b75700000e0
:102f18006e6574696e666f003a20476574206e6549
:102f280074776f726b20696e666f726d6174696f0a
:102f38006e0000006465666e657400003a20536593
:102f4800742f4765742064656661756c7420696eba
:102f580074657266616365003a2044484350206393
:102f68006c69656e7420636f6d6d616e64730000cb
:102f780064686370730000003a205475726e2044d0
:102f880048435020736572766572206f6e2f6f66a6
:102f9800660000007a636c6c000000003a205475eb
:102fa800726e205a434c4c206f6e2f6f666600007d
:102fb800736574646e7300003a2053657420444e40
:102fc80053206164647265737300000073657469eb
:102fd800700000003a2053657420495020616464f1
:102fe8007265737320616e64206d61736b000000fd
:102ff80073657467770000003a2053657420476151
:103008007465776179206164647265737300000088
:1030180073657462696f73003a2053657420686f32
:1030280073742773204e657442494f53206e616d47
:10303800650000007365746d616300003a20536594
:1030480074204d414320616464726573730000000d
:10305800696600003a204272696e6720616e2069d5
:103068006e746572666163652075702f646f776e24
:1030780000000000737461636b0000003a20537411
:1030880061636b207475726e206f6e2f6f666600b9
:1030980068656170696e666f000000003a204368d9
:1030a80065636b2068656170207374617475730063
:1030b800617270003a2041525020636f6d6d616eed
:1030c80064730000646e7363000000003a20444e8d
:1030d8005320636c69656e7420636f6d6d616e64f7
:1030e800730000006d6163696e666f003a20436883
:1030f80065636b204d41432073746174697374690f
:0431080063730000ed
:020000040000fa
:020000040040ba
:10310c00441940201c00000000000000000040207a
:10311c00ff00000000000000941a40200400000092
:10312c0000000000981a402004000000000000007d
:10313c009c1a40200400000000000000d41840201d
:10314c002800000000000000a01a4020040000002d
:10315c0000000000a41a4020040000000000000041
:10316c00a81a40200400000000000000ac1a402007
:10317c000400000000000000b01a40200400000011
:10318c0000000000921a4020020000000000000025
:10319c00ce1540200200000000000000b41a4020b0
:1031ac000400000000000000b81a402004000000d9
:1031bc0000000000bc1a40200400000000000000c9
:1031cc00c01a40200400000000000000c41a402077
:1031dc000400000000000000c81a40200400000099
:1031ec0000000000c01b4020020000000000000096
:1031fc00c21b40200200000000000000cc1a40203e
:10320c000400000000000000d01a40200400000060
:10321c0000000000d41a4020040000000000000050
:10322c00d81a40200400000000000000781940204b
:10323c001400000000000000dc1a40200400000014
:10324c0000000000c41b4020020000000000000031
:10325c00e01a402004000000000000005418402038
:10326c0048000000000000008c1a402006000000fe
:10327c0001000000ffffffffffff000000014020e6
:10328c0008000000000000009c18402038000000de
:10329c000000000088134020a00000000000000087
:1032ac00c61b4020020000000100000001000000cd
:1032bc008c1940201400000000000000e41a40208b
:1032cc000400000000000000e81a40200400000088
:1032dc0000000000241940201f0000000000000026
:1032ec00ec1a40200400000000000000f01a4020fe
:1032fc000400000000000000f41a4020040000004c
:10330c0000000000f81a402004000000000000003b
:10331c00431940200100000000000000cd154020a2
:10332c00010000000100000001000000fc1a402018
:10333c000400000000000000001b402004000000fe
:10334c0000000000a0194020140000000000000044
:10335c00ce1b40200100000000000000c81b4020d4
:10336c000200000000000000ca1b40200200000008
:10337c0000000000041b40200400000000000000be
:10338c00b41940201400000000000000081b40206d
:10339c000400000000000000080140203000000084
:1033ac0000000000bc144020900000000000000051
:1033bc00fc0c402050020000000000000c1b4020c0
:1033cc000400000000000000101b4020040000005e
:1033dc0000000000141b402004000000000000004e
:1033ec00181b402004000000000000001c1b4020a3
:1033fc000400000000000000201b4020040000001e
:10340c0000000000241b402004000000000000000d
:10341c00541a40201000000000000000c819402081
:10342c001400000000000000e0ff45202000000018
:10343c0000000000cf1b4020010000000000000035
:10344c00281b402004000000000000002c1b402022
:10345c000400000001000000ffffffff301b4020b4
:10346c000400000000000000341b40200400000099
:10347c00000000007c1a4020080000000100000041
:10348c00ffffffffffffffff38014020900400000b
:10349c0000000000c80540200400000000000000ef
:1034ac00381b40200400000000000000d01b40200e
:1034bc000100000000000000f80940200403000097
:1034cc00010000008c95410000000000000000008d
:1034dc0000000000000000000000000000000000e0
:1034ec0000000000000000000000000000000000d0
:1034fc0000000000000000000000000000000000c0
:10350c0000000000000000000000000000000000af
:1037cc00000000000000000000f04520f0000000a8
:1037dc0000000000fc174020580000000000000012
:1037ec004c0f40200802000000000000dc194020b3
:1037fc001400000001000000010100006de2410016
:10380c005de241007de24100c0fd0000cc0540209e
:10381c0014000000000000003c1b402004000000cd
:10382c0000000000401b40200400000000000000cd
:10383c00441b40200400000000000000481b4020f6
:10384c000400000000000000cc1b4020020000001f
:10385c00000000004c1b4020040000000000000091
:10386c00501b40200400000000000000541b4020ae
:10387c000400000000000000581b40200400000061
:10388c0000000000281440209400000000000000fc
:10389c00d01640206400000000000000641a402094
:1038ac000c000000000000003417402064000000f1
:1038bc000000000018ff4520c800000000000000b8
:1038cc00c0124020c800000000000000e0054020ad
:1038dc0009000000000000006019402018000000e2
:1038ec0000000000841a40200800000000000000c6
:1038fc005c1b40200400000000000000d01540209c
:10390c008000000000000000701a40200c00000035
:10391c0000000000f0f04520000a0000000000004c
:10392c00601b4020040000000000000050164020e6
:10393c0080000000000000004c15402081000000b9
:10394c0000000000641b4020040000000000000088
:10395c00681b402004000000000000006c1b40208d
:10396c0004000000000000009817402064000000d4
:10397c0000000000701b402004000000000000004c
:10398c00741b40200400000000000000781b402045
:10399c0004000000000000007c1b4020040000001c
:1039ac0000000000801b402004000000000000000c
:1039bc00841b40200400000000000000f01940208f
:1039cc001400000000000000041a40201400000045
:1039dc0000000000881b40200400000000000000d4
:1039ec008c1b40200400000000000000901b4020b5
:1039fc000400000000000000181a40201400000011
:103a0c0000000000941b4020040000000000000097
:103a1c002c1a40201400000000000000401a402026
:103a2c001400000000000000981b4020040000005f
:103a3c00000000009c1b402004000000000000005f
:103a4c00a01b40200400000001000000aaaaaaaaa2
:103a5c00a41b40200400000001000000f0fa4520e7
:103a6c00f0fa4520280400000100000000000000ce
:103a7c00dcfd452044fe4520acfe45200000000046
:103a8c00000000000000000000000000000000002a
:103a9c00000000000000000000000000000000001a
:103aac00000000000000000000000000000000000a
:103abc0000000000000000000000000000000000fa
:103acc0000000000000000000000000000000000ea
:103adc0000000000000000000000000000000000da
:103aec0000000000000000000000000000000000ca
:103afc0000000000000000000000000000000000ba
:103b0c0000000000000000000000000000000000a9
:103b1c000000000001000000000000000e33cdabdf
:103b2c0034126de6ecde05000b0000000000000016
:103b3c000000000000000000000000000000000079
:103b4c000000000000000000000000000000000069
:103b5c000000000000000000000000000000000059
:103b6c000000000000000000000000000000000049
:103e9c0000000000541140206c01000001000000e3
:103eac0043000000000000000000000000000000c3
:103ebc0000000000000000000000000000000000f6
:103ecc0043000000000000000000000000000000a3
:103edc0000000000000000000000000000000000d6
:103eec004300000000000000000000000000000083
:103efc0000000000000000000000000000000000b6
:103f0c004300000000000000000000000000000062
:103f1c000000000000000000000000000000000095
:103f2c004300000000000000000000000000000042
:103f3c000000000000000000000000000000000075
:103f4c004300000000000000000000000000000022
:103f5c000000000000000000000000000000000055
:103f6c004300000000000000000000000000000002
:103f7c000000000000000000000000000000000035
:103f8c0069d94100bdc6410000000000201e41005f
:103f9c009ce0410098e0410098e0410098e041002d
:103fac0098e0410098e0410098e0410098e0410021
:103fbc0098e0410098e04100ffffffffffffffff8b
:103fcc00ffffffffffff0000010041534349490081
:103fdc0000000000000000000000000000000000d5
:103fec00000000000000000000004153434949005c
:103ffc0000000000000000000000000000000000b5
:10400c00000000000000000000000000fc18402030
:10401c002800000000000000a81b40200400000045
:10402c0000000000ac1b4020040000000000000059
:10403c00b01b40200400000000000000f0054020f0
:10404c000804000001000000000000000000000057
:10405c00f0054020f0054020f8054020f8054020f0
:10406c00000640200006402008064020080640209c
:10407c00100640201006402018064020180640204c
:10408c0020064020200640202806402028064020fc
:10409c0030064020300640203806402038064020ac
:1040ac00400640204006402048064020480640205c
:1040bc00500640205006402058064020580640200c
:1040cc0060064020600640206806402068064020bc
:1040dc00700640207006402078064020780640206c
:1040ec00800640208006402088064020880640201c
:1040fc0090064020900640209806402098064020cc
:10410c00a0064020a0064020a8064020a80640207b
:10411c00b0064020b0064020b8064020b80640202b
:10412c00c0064020c0064020c8064020c8064020db
:10413c00d0064020d0064020d8064020d80640208b
:10414c00e0064020e0064020e8064020e80640203b
:10415c00f0064020f0064020f8064020f8064020eb
:10416c000007402000074020080740200807402097
:10417c001007402010074020180740201807402047
:10418c0020074020200740202807402028074020f7
:10419c0030074020300740203807402038074020a7
:1041ac004007402040074020480740204807402057
:1041bc005007402050074020580740205807402007
:1041cc0060074020600740206807402068074020b7
:1041dc007007402070074020780740207807402067
:1041ec008007402080074020880740208807402017
:1041fc0090074020900740209807402098074020c7
:10420c00a0074020a0074020a8074020a807402076
:10421c00b0074020b0074020b8074020b807402026
:10422c00c0074020c0074020c8074020c8074020d6
:10423c00d0074020d0074020d8074020d807402086
:10424c00e0074020e0074020e8074020e807402036
:10425c00f0074020f0074020f8074020f8074020e6
:10426c000008402000084020080840200808402092
:10427c001008402010084020180840201808402042
:10428c0020084020200840202808402028084020f2
:10429c0030084020300840203808402038084020a2
:1042ac004008402040084020480840204808402052
:1042bc005008402050084020580840205808402002
:1042cc0060084020600840206808402068084020b2
:1042dc007008402070084020780840207808402062
:1042ec008008402080084020880840208808402012
:1042fc0090084020900840209808402098084020c2
:10430c00a0084020a0084020a8084020a808402071
:10431c00b0084020b0084020b8084020b808402021
:10432c00c0084020c0084020c8084020c8084020d1
:10433c00d0084020d0084020d8084020d808402081
:10434c00e0084020e0084020e8084020e808402031
:10435c00f0084020f0084020f8084020f8084020e1
:10436c00000940200009402008094020080940208d
:10437c00100940201009402018094020180940203d
:10438c0020094020200940202809402028094020ed
:10439c00300940203009402038094020380940209d
:1043ac00400940204009402048094020480940204d
:1043bc0050094020500940205809402058094020fd
:1043cc0060094020600940206809402068094020ad
:1043dc00700940207009402078094020780940205d
:1043ec00800940208009402088094020880940200d
:1043fc0090094020900940209809402098094020bd
:10440c00a0094020a0094020a8094020a80940206c
:10441c00b0094020b0094020b8094020b80940201c
:10442c00c0094020c0094020c8094020c8094020cc
:10443c00d0094020d0094020d8094020d80940207c
:10444c00e0094020e0094020e8094020e80940202c
:10445c00b41b40200400000001000000ffffffff20
:10446c00b81b402004000000010000000000020006
:10447c00ec0540200400000000000000bc1b4020a4
:10448c00040000000000000000000000000000001c
:020000040000fa
:020000040040ba
:10449c002de9f04f93b00f210a2017f003f8079085
:1044ac0010f0010f12d1079b13f0020f40f074852e
:1044bc0013b0bde8f08fb9f8223013f4007f0cd0a4
:1044cc006ff00d010a22484617f000fc0a2017f085
:1044dc00bbff81460028eed1e5e7d9f81c301c461d
:1044ec000293b9f82060132e40f24385d9f8187066
:1044fc0007f110030493fb680f933b6910930022a0
:10450c008df8442006238df84530330a43ea062300
:10451c00adf846300c210fa814f016fac3439bb229
:10452c00b9f8222012f0040f35d032462146484605
:10453c0012f0fcfb002840f02085029c204613f072
:10454c00faff94f80cb04fea1b1b4fea8b0babf144
:10455c00140b1ffa8bf30693d9f81c80d9f828c0da
:10456c00b8f802b0bbf1000f00f00b85fd89bb89d8
:10457c001d44b8f800301d4485ea0b05adb2c74b9d
:10458c001a68002a00f00185c54bd3f800e000231f
:10459c009a4619460ee01a463146029814f0d4f9a0
:1045ac00c8e7206c844512d088b101331bb2194680
:1045bc0093422ed25ef82140002cf6d094f86e1067
:1045cc000b29f2d094f86f000128eed8e9e741b935
:1045dc00b4f86a105945e8d1baf1000f08bfa246e9
:1045ec00e3e7b4f86a10a942dfd1d8f80000a16d56
:1045fc008842dad1a06bf9688842d6d1012184f8bf
:10460c006f10c4f840c0049a204617f009f9a2466e
:10461c001de0baf1000f00f08c80fb68caf838304e
:10462c0001218af86f10caf840c0049a504617f05e
:10463c00f7f8aaf86a50b8f80030aaf85830b8f869
:10464c000230aaf85a30daf80030caf81030d9f82b
:10465c0010201389143b06995b1a1381029a547b20
:10466c00d2f8088055689af8373013f0400f63d1b0
:10467c009af86d306ff300038af86d309af86e304b
:10468c00002b7dd0012b00f0b280069ab61ab6b280
:10469c00a6f1140292b2069214f001020a9200f0f2
:1046ac00db80133e1ffa86fb14f0020f03d00bf1d4
:1046bc00010b1ffa8bfbdaf81c60daf8202096420b
:1046cc00c0f0cd80daf81810daf81400091ab21a12
:1046dc008a1a92b20492daf85020af1abbf1000f8a
:1046ec0000f0c280049a002a00f0cb80002f01db7e
:1046fc0097420ed307eb0b02002a40f3c2800499b9
:10470c00a1eb0b029742ccbf002201228f4280f218
:10471c00b58014f0060f00f0cb8014f0040f0cbf22
:10472c0000264ff40066002150460ff069f900f0a6
:10473c000abc6ff00d01c5e600238af871309af8b7
:10474c00363013f0020f93d116f014fecde90401ac
:10475c00baf8687019f030fe524ba3fb00231b0c07
:10476c0007fb03f7504ba3fb0737bf094f4a002346
:10477c00dde9040117f0fafc3844caf8240077e7a5
:10478c0014f0040f1ad114f0100f1dd114f0020ff5
:10479c0027d00135caf8505002980ff005faaaf844
:1047ac006200504616f0b7fc01221221504603f06d
:1047bc00e9f902238af86e300026c4e30021504642
:1047cc000ff01ef90026bee3caf84c80002204212b
:1047dc00504603f0d7f9002150460ff011f900268e
:1047ec00b1e3002150460ff00bf90026abe314f0b7
:1047fc00040f40f0a78314f0100f00f09e85daf838
:10480c004c60b04500f07a85caf84c800122042136
:10481c00504603f0b7f9caf84c60002693e316f043
:10482c00a9fd06460f46baf8684019f0c5fd1d4ba8
:10483c00a3fb00231b0c04fb03f41b4ba3fb043452
:10484c00a4091a4a00233046394617f08ffc20443d
:10485c00caf8240000f049bdddf818b024e7921b1b
:10486c00013a92b2049236e7002f3ff452af002f78
:10487c0007db049a9742acbf00220122002a7ff486
:10488c0048af14f0040f01d000265ce30122102184
:10489c00504603f077f9002655e300bfb01a4020cc
:1048ac00ac1a4020851dd96fd34d6210f04902001f
:1048bc0014f0100f00f04e83023b072b00f27e81a8
:1048cc00dfe813f008001d001d001d001d007c0119
:1048dc001d006f01daf84c60b0450ad0caf84c8064
:1048ec0001220421504603f04df9caf84c60002611
:1048fc0029e303238af86e304ff4807600e000261b
:10490c00daf808300d93daf81020981a14d4daf883
:10491c004c30a8eb0301091a00291dddbaf86c0014
:10492c0000f40170042801d101290cd000221021bf
:10493c00504603f027f906e3daf80430daf80010f1
:10494c005b1a1844e3e70133caf84c309af86d301f
:10495c0043f002038af86d30daf84c300b93daf836
:10496c000c00a2eb000ca3eb0c0c824240d2daf848
:10497c000430daf80010a3eb010eaceb0e0ea8eb32
:10498c000e0ebef1000f3bdddaf804301946089329
:10499c00daf80030c91a714530d39af86c3003f04c
:1049ac00ef036ff345138af86c309af836306ff3d7
:1049bc0045138af836307044caf80c000a44904209
:1049cc0076d8089b984202d3401acaf80c00daf841
:1049dc001030089a934202d35b1acaf810309af836
:1049ec006e30032b01d0082b33d146f0040630e097
:1049fc00a8eb0c030c93002b00f3ae84824228d05e
:104a0c009af86c3013f0100f1dd013f0200f14d047
:104a1c00caf84cc0824208d2daf80430daf8002026
:104a2c009b1aaceb0303caf84c30caf810009af886
:104a3c00363043f080038af836309af86c3043f005
:104a4c0020038af86c309af86c3043f010038af823
:104a5c006c30daf80c300d9a9a4232d0029bdb891a
:104a6c00baf866209a4238bfaaf86630daf84c20b9
:104a7c00029bdb8943449b1a9bb2baf85c1031b998
:104a8c002bb19af8361041f040018af83610aaf88a
:104a9c005c309af86e30042b57d0062b40f08f8088
:104aac00904540f05082002150460ef0a9ff4ae29a
:104abc00821a0b9b1a44caf84c20caf8100000f05a
:104acc0072bc9af8373013f0010f28d113f0400f55
:104adc001ed016f04ffccde90801baf868300b93e4
:104aec0019f06afcc749a1fb00131b0c0b9a02fbc3
:104afc0003f3c54aa2fb03239b090b93c34a002370
:104b0c00dde9080117f032fb0b9b1844caf82400ae
:104b1c009af836306ff341038af836309ee7daf8ac
:104b2c004c3098459ad19af86c3013f0040f95d00c
:104b3c009af836306ff341038af836309af83730ea
:104b4c006ff300038af8373088e7904503d014f0f0
:104b5c00200f43d0f7e19af86c3013f0040ff6d025
:104b6c0016f008fccde9080119f026fca54ba3fbb7
:104b7c0000231b0c41f2883202fb03f3a24aa2fb76
:104b8c0003239b090b93a14a0023dde9080117f0cd
:104b9c00edfa0b9b1844caf8300005238af86e30e6
:104bac00d5e7daf84c300133984501d00026cae13c
:104bbc00002150460ef024ff0026c4e1002614f01c
:104bcc00200f40f0c0819af86e20a2f10803dbb2ee
:104bdc00012b40f2b881062a00f0b581069b002b10
:104bec0000f0a180002f46dd069b3b4404998b42cc
:104bfc0002ddcc1ba3b20693029a137b1b0902ebba
:104c0c0083030e93daf81c10daf81820069b3b4449
:104c1c000b449a4280f0fc80531a0133db1b00f1e9
:104c2c00e3809ab201240094029213460ea8024625
:104c3c003944484613f015fc0490069b029a9b1ac3
:104c4c00daf8141000949bb20eaa484613f009fc33
:104c5c00049b034498b2069b834264d1daf8543027
:104c6c00b3f1ff3f40f0dd80caf85470bdf8183046
:104c7c00aaf8603057e0029a137b1b09c7eb830339
:104c8c0013440e93069b3b449cb2049ba34228bf47
:104c9c0023461c46daf81c10daf818300a1993422d
:104cac007fd25b1a01330293bdf8082001270097cd
:104cbc00069213460ea80246484613f0d2fb049007
:104ccc00069aa31adaf8141000979bb20eaa48465b
:104cdc0013f0c7fb049a024490b2029be31adaf871
:104cec001420134484421ed1daf850102144caf81f
:104cfc005010caf81c309af86e20033ad2b2022a2d
:104d0c0098bf46f40076daf85420b2f1ff3f0ad08f
:104d1c00141bcaf85440baf8602012194cd54ff045
:104d2c00ff33caf85430bbf1000f00f0a8809af89a
:104d3c006e30033bdbb2022b03d9daf81c30caf815
:104d4c0020309af8363013f0100f40f093809af818
:104d5c00363043f010038af8363013f0080f40f069
:104d6c008e80dbb243f008038af8363016f002fb73
:104d7c00cde9020119f020fb224ba3fb00231b0cf5
:104d8c00642404fb03f4204ba3fb0434a4091f4a42
:104d9c000023dde9020117f0e9f92044caf82c00e0
:104dac006de00123009323460eaa484613f059fbed
:104dbc00daf81c30234495e7002cb4dc1144caf813
:104dcc0050101344caf81c30daf81820934206d954
:104ddc00daf81410521ad2431344caf81c304ff0ac
:104dec00ff33caf854309ee7781edaf81430d21a22
:104dfc00801a01230093069b0eaa0144484613f027
:104e0c0030fb28e7851dd96fd34d6210f0490200a5
:104e1c0001230093069b0eaa3944484613f021fb4c
:104e2c0019e79f4214d2069ad119baf86020d0180b
:104e3c00814201d88b4206d9bdf81830aaf86030ef
:104e4c00caf854706fe71344db1baaf86030f7e71d
:104e5c00baf860201a4406980146394491427ff60c
:104e6c0062af97423ff65faffb1a01461944aaf8ae
:104e7c00601058e701221021504602f083fe0a9b75
:104e8c00002b60d0daf8503001335d44ab425ad17c
:104e9c00caf8503046f480669af86e30023b032b09
:104eac002ed8dfe803f0020b334509238af86e3065
:104ebc0001221121504602f065fe44e008238af8d5
:104ecc006e3016f057fa04460d4619f075fad04bb1
:104edc00a3fb00231b0cc82707fb03f7cd4ba3fb3d
:104eec000737bf09cc4a00232046294617f03ef964
:104efc003844caf830009af86d3013f0010f22d103
:104f0c0001221021504602f03dfe1ce0daf84c3034
:104f1c00984509d100221021504602f033fe0021a1
:104f2c0050460ef06dfd0ee006238af86e30e7e772
:104f3c0000221021504602f025fe002150460ef0b2
:104f4c005ffd00e00026baf87220324004d1022145
:104f5c00fff7b8ba0026f6e7daf87440ccb1daf805
:104f6c007830d9f82810baf93400a0470221fff79d
:104f7c00a9ba6ff00c01fff7a5ba6ff00901fff7a2
:104f8c00a1ba6ff00d01fff79dba6ff00d01fff79d
:104f9c0099ba0221fff796baa04b1b68002b3ff47d
:104fac0087aa00252b469e4fdff864b2dff864a277
:104fbc00b5e00026b046c4e016f0dcf9964a0023b2
:104fcc0017f0d4f8a36ac01a0028a8bf1026bce0ba
:104fdc0016f0d0f9904a002317f0c8f8e36ac01a0b
:104fec000028a8bf1026b6e016f0c4f98a4a0023a0
:104ffc0017f0bcf8236bc31a002bc0f2b180092345
:10500c0084f86e30112688f001023146204602f0f9
:10501c00b9fdade016f0aef97f4a002317f0a6f803
:10502c00236bc31a002bc0f2a0800122142120464e
:10503c0002f0a8fd002120460ef0e2fc67e094f897
:10504c00366006f00106012120460ff04dff94f862
:10505c00363043f0010384f836304ff4805200218f
:10506c00204614f08ffd002e51d194f836306ff39a
:10507c00000384f836300a2384f86e3047e016f0cb
:10508c0079f9654a002317f071f8636ac01a002891
:10509c003ddb94f86e30013b082b00f2fd80dfe81d
:1050ac0013f00900c100d800e300fb00eb00fb008b
:1050bc00fb00f30094f87030032b00f2968002266c
:1050cc004ff0000994f87030013384f87030a36c01
:1050dc005b00a3642169e2688b1a9bb2914204d2f3
:1050ec0061682068091a0b449bb2e16cc91ae1642f
:1050fc00b4f85c100b44a4f85c30226100223146f9
:10510c00204602f03ffdb9f1000f40f0cb80013595
:10511c002db22b46414a12689542bff4c9a93a6890
:10512c0052f82340002cf2d094f86e300b2beed0ba
:10513c0094f8363013f0c00f3ff43baf4fead3185e
:10514c00102613f0040f7ff437af94f8363013f0b9
:10515c00080f7ff43daf94f86e30082b3ff444af4a
:10516c0094f86e30052b3ff455af002e7ff44baf07
:10517c0094f8363013f0020f81d194f8373013f0d5
:10518c00400fc4d094f86e30032bc0d116f0f2f857
:10519c00214a002316f0eaff636ac31a002bb6db20
:1051ac0094f8712094f87c309a423ff448af022274
:1051bc001021204602f0e6fc16f0dcf88046894609
:1051cc00b4f8686019f0f8f8abfb00231b0c06fb75
:1051dc0003f6aafb0636b6090f4a00234046494699
:1051ec0016f0c4ff3044606291e7042384f87030f9
:1051fc0019f0e2f8abfb00231a0c4ff47a7303fba3
:10520c0002f3aafb03239b091b01a364022657e7a5
:10521c00851dd96fd34d6210f0490200b01a4020a1
:10522c00ac1a402094f87030022b40f28b8094f82a
:10523c00363013f0010314bf142602269946b8f138
:10524c00000f7ff43faf01223146204602f09afc5a
:10525c0059e794f87030042b76d9042384f86e3017
:10526c0011264ff00009eae794f87030042b6dd941
:10527c0014264ff00109e2e794f87030042b67d93b
:10528c0014264ff00109dae794f87030042b61d939
:10529c0014264ff00109d2e7002e3ff438af4ff03f
:1052ac000009cce7002120460ef0aafb2fe70135c0
:1052bc00caf850500298c389aaf86630aaf85c3034
:1052cc000ef072fcaaf86200504615f024ff012281
:1052dc001021504602f056fc03238af86e309af8df
:1052ec00373013f0400f7ff49aaa9af836306ff3e8
:1052fc0041038af836304ff4807624e614f0020f1e
:10530c00d5d100261fe60135caf850500298c38942
:10531c00aaf86630aaf85c300ef046fcaaf86200d7
:10532c00504615f0f8fe01221221504602f02afcdc
:10533c0002238af86e30002605e614f0020fe2d143
:10534c00002600e61226bbe61026b9e61126b7e6c3
:10535c001026b5e61126b3e6daf804100b460891d0
:10536c00daf80010591a0c9b8b423ff647ab9af8af
:10537c006ce00ef0ef0e6ff3451e8af86ce09af8b5
:10538c0036e06ff3451e8af836e00c9b1844caf8d9
:10539c000c008242bff415ab831a0b9a1344caf863
:1053ac004c30caf81000089b83427ff60dabfff718
:0453bc0016bb00bf5d
:020000040000fa
:020000040040ba
:1053c0002de9f04f2ded0e8b1d4699b0002382463e
:1053d000284689460892149319f01cfa00240023e9
:1053e00083460068cde906340ef0caf9cdf84c903a
:1053f00004904b46194613f8014b2d2c00f2b38054
:10540000dfe804f017b1b1b1b1b1b1b1b1858585b3
:105410008585b1b1b1b1b1b1b1b1b1b1b1b1b1b1d4
:10542000b1b1b1b185b1b1b1b1b1b1b1b1b1b13118
:10543000b1829fedad7b089b8ded047b63b10022b3
:105440004b460992089a1360099b2bb19ded047b92
:10545000b1ee477b8ded047b9ded040b19b0bdece7
:105460000e8bbde8f08f0023099301f10108cdf800
:105470004c804c78002cdcd0302c79d000230a935f
:10548000a4f13003092b00f2238400273e463d4659
:105490004046082dc8bf07eb870706eb860300f1df
:1054a000010004eb43031390c4bf04eb4704a4f1d1
:1054b00030070478d8bfa3f13006a4f13003092bdc
:1054c00005f10105e5d9dbf80010049a0ff05aff49
:1054d000f8b1002108468b46ae46652c00f0b2803c
:1054e000452c00f0af800023002d55d119b90a9b3f
:1054f000002b00f0d9829fed7c7b8ded047b089b17
:10550000002ba1d0139b9de701230993ade71393d3
:1055100070e7139b04995a1813925c5cae460146df
:10552000a4f13003092b00f278824a1c1c46002ba0
:1055300000f05086012a104418bf491906d100f026
:1055400059be56008c4500f095846546082d05f13e
:10555000010c06eb8602f4ddbcf1100fdcbf07eb9b
:1055600087077f00eee70023302c8846099385d11a
:1055700098f80130582b00f08e83782b00f08b8345
:105580004346013313931c78302cfad09846002cf4
:10559000b1d001230a9373e707ee906ab8ee677bf8
:1055a000102d8ded047ba3eb0004dde904012a46f8
:1055b000a8bf1022bef1000f08bfae46092acde9f0
:1055c00006010edd4a4b03ebc20313ed126b9ded9a
:1055d000045b07ee907ab8ee677ba5ee067b8ded57
:1055e000067b0f2d00f38c80002c26d040f3d08456
:1055f000162c00f359843e4800ebc40090ed007b6c
:105600009ded066b27ee067b8ded047b77e713a8f7
:10561000384916f0c9fd00283ff40baf139b3649fb
:10562000013b13a8139316f0bffd10b9139b013370
:105630001393324b0793002306939ded067b8ded6c
:10564000047b5ce7002d00f0db81ddf84c9009f174
:105650000103139399f801402b2c00f0f5822d2cb7
:1056600000f0188200230493a4f13003092b00f208
:10567000e782302c05d1139b013313931c78302c17
:10568000fad0a4f13103082b3ff62daf139b0c93f6
:105690005a1c303c13920b945c78a4f1300cbcf192
:1056a000090f0fd80b9b0132139203eb830304eb1a
:1056b00043031478a4f1300cbcf1090fa3f13003bb
:1056c000f1d90b930c9bd21a082a00f3e5830b9bac
:1056d00044f61f629342a8bf1346049a002a3ff47f
:1056e00003af5b4200e700bf0000000000000000c5
:1056f000384141008ce2410090e241000000f07f1f
:10570000ab1a2344002b40f3698313f00f010ad036
:10571000cb4a02ebc1029ded066b92ed007b27eeba
:10572000067b8ded067b33f00f0340f015824ff0c2
:10573000000b414600962b467246504610f070fb17
:105740008046002800f00083002c4ff00007c4f1d1
:1057500000039fedb3aba8bf3b469fedb39b9fed0e
:10576000b4bb9fedb58b0b9324eae4730a933c46dc
:10577000d8f80410504614f01dfd0646002800f02d
:105780006982d8f810209ded067b0232920008f164
:105790000c010c308ded047b0af084ff9ded040bb1
:1057a00016aa15a950460ef0d1ff1490002800f05b
:1057b00052820121504618f0a5fc0446002800f052
:1057c0004982159a002ac0f223810b9b0a9d03eba4
:1057d0000209169b9b49a2eb0b021a44013a8a422a
:1057e000c3f1360380f2dd80891a1f29a3eb010380
:1057f00000f3308101228a400e9200220f921d4454
:105800004b4499454a465d44a8bf1a46aa42a8bfe0
:105810002a46002a03dd9b1aad1aa9eb02090b9a4e
:10582000e2b1214650460c9310f022f90c9b04463d
:10583000002800f00f820146149a0c9350460bf09a
:10584000ddfb0c9b002800f005820d9014990c9351
:10585000504618f04dfc0d9a0c9b1492002b08dd5d
:105860001a46149950460ff03bfd1490002800f0a2
:10587000f2810a9b43b131460a9a504610f0f8f87b
:105880000646002800f0e681002d08dd31462a4654
:1058900050460ff025fd0646002800f0db81b9f1e7
:1058a000000f08dd21464a4650460ff019fd044618
:1058b000002800f0cf813246149950460cf0aaf926
:1058c0000746002800f0c6810023c568c360214652
:1058d00016f0c4f80028c0f26c8300f0b2832146b1
:1058e000384613f0adfbb0ee007bb4eec70bf1ee23
:1058f00010fa5bd8002d00f0ba80b7ee00db524bf7
:10590000079800225149dff848e100ea0109f14512
:1059100000f0f281bbf1000f1bd0b9f1d46f18d8a1
:10592000b4eec8dbf1ee10fa0fd8bceecd0b10eee2
:10593000103a002b00f0d382b8ee40db002d40f08f
:105940000683b1ee4d7b53ec172b03f1d661a1eb2f
:1059500009039ded040b43ec1c2b14f0eff89dedb7
:10596000047bacee007b53ec172bcde906231a46e3
:10597000bbf1000f04d1354b1340994500f0f18184
:105980001499504618f0b4fb3146504618f0b0fb5d
:105990002146504618f0acfb3946504618f0a8fb9b
:1059a000e6e600220f9201220e9228e7b6ee00db17
:1059b00020ee0ddb002d6ad1b1ee4d7b53ec172ba1
:1059c00007989fe7139a049953181393545c302c4b
:1059d000294606d1013313931c78302c01f10101c3
:1059e000f8d0a4f13103082b40f2c3824ff0000e2f
:1059f000652c7046774676464ff0010b7ff470ad0c
:105a000000294fd10a9b002b3ff413ad0d461ce635
:105a10000a9bddf82c909d1adbe64ff0010b5ce54c
:105a20009535a094ffffdf3f35e5af350000e03f3f
:105a30009535a094ffffcf3f0000c0ffffffdf417f
:105a40003841410002fcffff0000f03f0000f07f02
:105a50000000e07fc2f17f4202f57f0202f57b4247
:105a60000121e23201fa02f20f920e91c7e6dde95e
:105a70000612002900f0bc80dde90612012900f0c1
:105a800069821046b7ee00db0022cb4b3ae753ecbd
:105a90001d2b95e70123049309f10203139399f851
:105aa0000240e1e50025d0e5bbf1000f7ff4c1ac79
:105ab000493c252c3ff6bdac01a353f824f000bfb0
:105ac0000f564000335440003354400033544000dc
:105ad000335440001f5c40003354400033544000b6
:105ae000335440003354400033544000335440009a
:105af000335440003354400033544000335440008a
:105b00003354400033544000335440003354400079
:105b10003354400033544000335440003354400069
:105b20003354400033544000335440003354400059
:105b30003354400033544000335440003354400049
:105b40000f5640003354400033544000335440005b
:105b5000335440001f5c4000b3f59a7f00f3f4809b
:105b60001b11012b954f40f3a9829ded067b8ded16
:105b7000047b00203a46014613f0010f01f10101b8
:105b80004fea630308d09ded046b92ed007b26ee97
:105b9000077b8ded047b0120012b02f10802ebd184
:105ba000002840f02283079b854aa3f15473079392
:105bb00007ebc10191ed007b9ded066b27ee067ba7
:105bc00051ec170b21f000431b0d1b059342cde94f
:105bd000060100f2b980a2f58012934240f25a8287
:105be000784b07934ff0ff334ff0000b0693a0e57f
:105bf000c2f313031046002b7ff444afb7ee007bd3
:105c0000b4eec70bf1ee10fa00f13f82b6ee00db06
:105c100020ee0ddbb1ee4d7b53ec172b72e613a893
:105c2000694916f0c1fa00283ff403ac139b1b78b6
:105c3000282b00f0a982654b079300230693fce410
:105c4000cdf84c9000234fe40023049324e7013364
:105c500040f0838214985e4b0793002206929deddc
:105c6000067b8ded047b2223caf8003001465046a6
:105c700018f03efa3146504618f03afa214650469e
:105c800018f036fa4146504618f032fa3946504676
:105c900018f02efa33e4099a029514ab019200939e
:105ca0004c4a15ab13a9504602f0b6ff10f0070599
:105cb00004463ff420ac062d40f014819fed3c7b60
:105cc00008f10103139300238ded047b099316e47f
:105cd000dbf80010049a40460ff054fb05460028fc
:105ce0003ff470ae4ff0000e774676467146704630
:105cf0007546f346fff7f1bb0c91a0f15471079183
:105d00009ded06ebb0ee4e0b43ec1c2b13f016ff93
:105d1000acee00eb52ec1e1bcde906120c992e4b9b
:105d200001ea0200dde904129842cde9101240f2c6
:105d3000b68003f154739a4200f0a281214b07937d
:105d40004ff0ff3306931be6214b07930022069288
:105d50009ded067b22238ded047bcaf80030fff712
:105d6000cebbbdeecd7bb8eec77b3dee477b85b9a4
:105d7000069b73b9c2f313025ab9b4eecb7bf1eeb2
:105d800010fa7ff5fdad9ded067b14988ded047b3b
:105d90006ce7b4eeca7bf1ee10faf4d4b4eec97b32
:105da000f1ee10fa7ff7ecadede700bfaff3008046
:105db00000000000000000000000f0bfe8cc41003f
:105dc0000000a07cffffef7f98e241000000f8ff99
:105dd0000000f07fa0e04100ffff9f7c3ff4a7acf4
:105de0005b4213f00f010ad0b74a02ebc1029dedee
:105df000065b92ed007b85ee076b8ded066b1b114c
:105e00003ff495ac1f2b2cdc13f0100b00f07b81c2
:105e1000002b4ff06a0b40f363819ded067b8ded07
:105e2000047baa4a0021d80708d59ded046b92edaa
:105e3000007b26ee077b8ded047b01215b1002f1d8
:105e40000802f0d1002940f0c081bbf1000f40f002
:105e500047819ded067bb5ee407bf1ee10fa7ff4b5
:105e600068ac9fed977b2223caf800308ded047b50
:105e7000fff745bb139a0235bcf1080f40f382804f
:105e8000102ddcbf07eb870703eb47070021531cee
:105e900013935478fff744bb44f61f631de4079b3c
:105ea00003f15472079263e5c5f125039c423ff765
:105eb00027acc5f10f05844b621b03ebc20203eb59
:105ec000c50392ed006b93ed007b9ded065b27ee25
:105ed000057b27ee067b8ded047bfff710bbb7ee4d
:105ee00000db2be5149a3ab1352116a814f0cafb51
:105ef0005046149918f0fcf8013d042d06d8dfe84f
:105f000005f00e21031a0e00714b079324077ff54d
:105f100094ab079b43f000430793fff78ebb159aa2
:105f2000179b1699069102f2334223f4801343ea39
:105f300002530793eae76ff0004307934ff0ff33f4
:105f40000693e3e7169b0693179b0793dee753ec54
:105f50001d2bfae4dde906231846002b7ff492adf1
:105f60009fed577b2223caf8003014988ded047bf7
:105f70007ce6139a4ff0000e303c481c9046764663
:105f80007746012506eb860604eb460600217ee7f0
:105f900014f1160ffff6b4ab4b48a0ebc40090ed24
:105fa000007b9ded065b85ee076b8ded046bfff7c7
:105fb000a6ba002d5fd1dde9061200295bd1c2f33c
:105fc00013039146002b56d122f000431b0d1b05f5
:105fd000b3f1d66f4fd97b6913b93b69012b4add09
:105fe0003946012250460ff07bf92146074615f04d
:105ff00035fd00283fdd364b09ea0303bbf1000ff6
:1060000000f0d480b3f1d66f00f3d080b3f15c7fa1
:10601000a6dd304b1193002310939ded047b9ded85
:10602000106b27ee067b8ded047bdde90423cde9c3
